S00D0000544B48544E2E737265638E
S11300000C9434000C9451000C9451000C94510045
S11300100C9451000C9451000C9451000C94510018
S11300200C9451000C9451000C9451000C94510008
S11300300C9451000C9451000C9451000C945100F8
S11300400C9451000C9451000C943F020C945100F8
S11300500C9451000C9451000C9451000C945100D8
S11300600C9451000C94510011241FBECFEFD8E022
S1130070DEBFCDBF11E0A0E0B1E0E4ECFBE002C0E4
S113008005900D92AC36B107D9F721E0ACE6B1E0AA
S113009001C01D92A537B207E1F70E94C5000C9478
S11300A0E0050C94000014BE0FB6F894A895809156
S11300B06000886180936000109260000FBE0E940F
S11300C099030E944F020E94E0010E94DA0287B164
S11300D0806287B988B18F7D88B984B1826084B920
S11300E085B1826085B98AB1877F8AB98BB188600E
S11300F08BB908950E94200380E091E00E943603AA
S113010088B1806288B92FE986E891E02150804067
S11301109040E1F700C0000088B18F7D88B998E075
S113012088E10FB6F894A895809360000FBE909371
S11301306000FFCF0E9420034DE051E060E080E0CA
S11301400E9443038091700190917101892B29F4DD
S113015082E191E00E94360304C086E191E00E94AE
S113016036034AE151E060E081E00E94430380915C
S11301706C01811105C082E191E00E94360308956B
S113018086E191E00E94360308950E9453000E9484
S113019020038FE191E00E94360388B1806288B920
S11301A087EA91E60197F1F700C0000088B18F7DDE
S11301B088B980E090E00E94A0039FE32DE083E0F3
S11301C0915020408040E1F700C000000E942003CD
S11301D04B9909C087E893E10197F1F700C000004B
S11301E04B9B0E947A000E943902882309F45BC069
S11301F08337B1F480916D0181110AC081E080934D
S11302006D010E9420038CE291E00E94360349C0F4
S1130210813009F046C010926D010E94200341C054
S11302208D3681F580916D01813051F482E08093A7
S11302306D018091700180936C010E949A0031C01D
S1130240823079F580916C0190E0909371018093F4
S113025070010E94200388E391E00E9436039FE32B
S11302602DE083E0915020408040E1F700C0000081
S113027081E080936D010E9420038CE291E00E9452
S113028036030FC0853669F480916D01823049F4DC
S113029081E090916C01911180E080936C010E9447
S11302A09A000E943C0280916D0181117FC00E94DE
S11302B05C0290936F0180936E010297869728F4F5
S11302C098B180E2892788B903C088B18F7D88B945
S11302D060916E0170916F01809172019091730130
S11302E00E940602609172017091730180916E0107
S11302F090916F010E946B03809170019091710144
S1130300892B31F58091720190917301029690933B
S1130310730180937201843B9105DCF184EB90E0DE
S1130320909373018093720181E090E09093710146
S11303308093700184EB90E00E94A0039FE926E87B
S113034081E0915020408040E1F700C0000021C0CE
S1130350809172019091730102979093730180933D
S1130360720118161906ACF0109273011092720102
S1130370109271011092700180E090E00E94A0033D
S11303809FE926E881E0915020408040E1F700C0D9
S1130390000080917201909173010E94A0038BE48C
S11303A09DE10197F1F700C0000012CF88B18F7D65
S11303B088B987EA91E60197F1F700C0000008CFF9
S11303C01092C5008CE08093C400E0ECF0E08081E2
S11303D08260808388E98093C10086E08093C200B4
S11303E0789408959091C00095FFFCCF8093C60047
S11303F00895CF93DF93EC0103C021960E94F2018C
S113040088818111FACFDF91CF9108950F931F93C3
S1130410CF93DF93CDB7DEB72A970FB6F894DEBF3C
S11304200FBECDBF8B014AE0BE016F5F7F4F0E94BC
S1130430AB05CE0101960E94F9018CE20E94F20103
S11304404AE0BE016F5F7F4FC8010E94AB05CE0139
S113045001960E94F9018EE20E94F2012A960FB6DB
S1130460F894DEBF0FBECDBFDF91CF911F910F91E6
S113047008958091740108951092740108951F9253
S11304800F920FB60F9211248F938091C600809320
S113049074018F910F900FBE0F901F90189587B124
S11304A0886087B987B18F7E87B988B1877F88B91B
S11304B088B18F7E88B9089588B1886088B924E0AE
S11304C02A95F1F788B1877F88B980E090E0DC0154
S11304D009C00196A11DB11D893B2BE09207A1051E
S11304E0B10504F5349BF5CF80E090E0DC0109C050
S11304F00196A11DB11D893A21E69207A105B10516
S1130500A4F43499F5CFBC01CD0126E030E040E0FD
S113051050E00E946A05C9010297879748F080E07D
S113052090E0089580E090E0089580E090E00895E0
S1130530C901089585B1846085B9000085B18B7FB8
S113054085B980E18A95F1F700C008959BB19F7049
S1130550807F892B8BB90E949A020895CF93C82F6C
S113056085B18E7F85B98C2F807F0E94A6028C2F47
S11305708295807F0E94A60283EF91E00197F1F7B4
S113058000C00000CF910895CF93C82F85B181603A
S113059085B98C2F807F0E94A6028C2F8295807F44
S11305A00E94A60283EF91E00197F1F700C00000DA
S11305B0CF91089584B1856084B98AB1806F8AB976
S11305C085B18A7F85B983ED90E30197F1F700C087
S11305D0000085B18E7F85B980E30E94A60281EE7A
S11305E094E00197F1F700C0000080E30E94A602A6
S11305F092E39A95F1F780E30E94A60283EF91E0DB
S11306000197F1F700C0000080E20E94A60283EF88
S113061091E00197F1F700C0000088E20E94AE0269
S11306208CE00E94AE0281E00E94AE0286E00E944D
S1130630AE0283EF91E00197F1F700C00000089546
S113064081E00E94AE0283EF91E00197F1F700C0D0
S113065000000895811105C080E8860F0E94AE0253
S1130660089580EC860F0E94AE020895CF93DF9325
S1130670EC0103C021960E94C40288818111FACF43
S1130680DF91CF910895CF93DF93EA010E942A036B
S1130690CE010E943603DF91CF910895CF93DF936B
S11306A0CDB7DEB72C970FB6F894DEBF0FBECDBF23
S11306B04AE0BE016F5F7F4F0E94AB05CE010196F9
S11306C00E9436032C960FB6F894DEBF0FBECDBF42
S11306D0DF91CF9108950F931F93CF93DF93EC0194
S11306E08B0160E080E00E942A03209729F482E4D1
S11306F091E00E9436030BC083E591E00E9436032B
S1130700CE010E944E038AE591E00E94360343E63F
S113071051E060E081E00E944303C8010E944E035F
S11307208EE491E00E943603DF91CF911F910F91E7
S1130730089587B1816087B988B18E7F88B908959B
S1130740992314F480E090E0853B910514F084EB48
S113075090E0BC01990F880B990B0E9471042DEC59
S11307603CEC48E251E40E94FD0420E030E04AEF12
S113077053E40E94D40320E030E040E85EE30E94AA
S1130780FD040E94400428B1216028B9CB010197DF
S1130790F1F788B18E7F88B985EA9EE00197F1F779
S11307A000C0000008955058BB27AA270E94EB03FD
S11307B00C94C3040E94B50438F00E94BC0420F0D9
S11307C039F49F3F19F426F40C94B2040EF4E09526
S11307D0E7FB0C94AC04E92F0E94D40458F3BA1735
S11307E0620773078407950720F079F4A6F50C9443
S11307F0F6040EF4E0950B2EBA2FA02D0B01B901CF
S113080090010C01CA01A0011124FF27591B99F082
S1130810593F50F4503E68F11A16F040A22F232F8E
S1130820342F4427585FF3CF469537952795A795DE
S1130830F0405395C9F77EF41F16BA0B620B730B85
S1130840840BBAF09150A1F0FF0FBB1F661F771FF6
S1130850881FC2F70EC0BA0F621F731F841F48F4AB
S1130860879577956795B795F7959E3F08F0B0CF34
S11308709395880F08F09927EE0F9795879508951B
S11308800E94DC0488F09F5798F0B92F9927B7513C
S1130890B0F0E1F0660F771F881F991F1AF0BA9520
S11308A0C9F714C0B13091F00E94F604B1E0089584
S11308B00C94F604672F782F8827B85F39F0B93F76
S11308C0CCF3869577956795B395D9F73EF49095D3
S11308D08095709561957F4F8F4F9F4F0895E89451
S11308E009C097FB3EF490958095709561957F4F74
S11308F08F4F9F4F9923A9F0F92F96E9BB27939522
S1130900F695879577956795B795F111F8CFFAF431
S1130910BB0F11F460FF1BC06F5F7F4F8F4F9F4F62
S113092016C0882311F096E911C0772321F09EE8C0
S1130930872F762F05C0662371F096E8862F70E026
S113094060E02AF09A95660F771F881FDAF7880F00
S11309509695879597F9089597F99F6780E870E0D1
S113096060E008959FEF80EC089500240A94161621
S1130970170618060906089500240A941216130689
S1130980140605060895092E0394000C11F4882317
S113099052F0BB0F40F4BF2B11F460FF04C06F5F33
S11309A07F4F8F4F9F4F089557FD9058440F551F09
S11309B059F05F3F71F04795880F97FB991F61F0DD
S11309C09F3F79F087950895121613061406551F54
S11309D0F2CF4695F1DF08C0161617061806991FC0
S11309E0F1CF86957105610508940895E894BB27B5
S11309F066277727CB0197F908950E9410050C9478
S1130A00C3040E94B50438F00E94BC0420F095236E
S1130A1011F00C94AC040C94B20411240C94F7045B
S1130A200E94D40470F3959FC1F3950F50E0551FB5
S1130A30629FF001729FBB27F00DB11D639FAA272F
S1130A40F00DB11DAA1F649F6627B00DA11D661F7E
S1130A50829F2227B00DA11D621F739FB00DA11D9F
S1130A60621F839FA00D611D221F749F3327A00D59
S1130A70611D231F849F600D211D822F762F6A2FF5
S1130A8011249F5750409AF0F1F088234AF0EE0F5A
S1130A90FF1FBB1F661F771F881F91505040A9F787
S1130AA09E3F510580F00C94AC040C94F7045F3F16
S1130AB0E4F3983ED4F3869577956795B795F795C3
S1130AC0E7959F5FC1F7FE2B880F911D969587953B
S1130AD097F90895052E97FB1EF400940E94810552
S1130AE057FD07D00E94890507FC03D04EF40C94EF
S1130AF0810550954095309521953F4F4F4F5F4F5D
S1130B00089590958095709561957F4F8F4F9F4F75
S1130B100895A1E21A2EAA1BBB1BFD010DC0AA1F3A
S1130B20BB1FEE1FFF1FA217B307E407F50720F052
S1130B30A21BB30BE40BF50B661F771F881F991FCD
S1130B401A9469F760957095809590959B01AC0116
S1130B50BD01CF010895BB274A3031F4992322F413
S1130B60BDE2909581959F4F0C94B705BB27FB017F
S1130B705527AA27880F991FAA1FA41710F0A41B92
S1130B8083955051B9F7A05DAA3308F0A95DA193EC
S1130B90009779F7B111B1931192CB010C94D00560
S1130BA0DC01FC01672F71917723E1F7329704C0D0
S1130BB07C916D9370836291AE17BF07C8F308955B
S1070BC0F894FFCFD3
S1130BC4524553455454494E472E2E2E00437572B4
S1130BD43A0046776400526576005365743A0053CC
S1130BE4797374656D205265616479005379737403
S1130BF4656D2053746F70005361766564204F4BA8
S1130C0421004E6F204F626A6563742020202020E7
S1130C14202000446973743A2000636D202020204E
S10F0C24202000416E676C653A2000003F
S9030000FC
